{"abi":[{"type":"constructor","inputs":[{"name":"_swapRouter","type":"address","internalType":"address"},{"name":"_riftExchange","type":"address","internalType":"address"},{"name":"_cbBTC","type":"address","internalType":"address"},{"name":"_permit2","type":"address","internalType":"address"},{"name":"_universalRouter","type":"address","internalType":"address"}],"stateMutability":"nonpayable"},{"type":"function","name":"_permitTransfer","inputs":[{"name":"owner","type":"address","internalType":"address"},{"name":"amountIn","type":"uint256","internalType":"uint256"},{"name":"permitted","type":"tuple","internalType":"struct ISignatureTransfer.PermitTransferFrom","components":[{"name":"permitted","type":"tuple","internalType":"struct ISignatureTransfer.TokenPermissions","components":[{"name":"token","type":"address","internalType":"address"},{"name":"amount","type":"uint256","internalType":"uint256"}]},{"name":"nonce","type":"uint256","internalType":"uint256"},{"name":"deadline","type":"uint256","internalType":"uint256"}]},{"name":"signature","type":"bytes","internalType":"bytes"}],"outputs":[],"stateMutability":"nonpayable"},{"type":"function","name":"approveForSpender","inputs":[{"name":"amountIn","type":"uint256","internalType":"uint256"},{"name":"spender","type":"address","internalType":"address"},{"name":"tokenIn","type":"address","internalType":"address"}],"outputs":[],"stateMutability":"nonpayable"},{"type":"function","name":"cbBTC","inputs":[],"outputs":[{"name":"","type":"address","internalType":"address"}],"stateMutability":"view"},{"type":"function","name":"executeSwap","inputs":[{"name":"swapCalldata","type":"bytes","internalType":"bytes"},{"name":"owner","type":"address","internalType":"address"},{"name":"amountIn","type":"uint256","internalType":"uint256"},{"name":"tokenIn","type":"address","internalType":"address"}],"outputs":[{"name":"result","type":"tuple","internalType":"struct Types.BundlerResult","components":[{"name":"initialCbBTCBalance","type":"uint256","internalType":"uint256"},{"name":"finalCbBTCBalance","type":"uint256","internalType":"uint256"},{"name":"cbBTCReceived","type":"uint256","internalType":"uint256"}]}],"stateMutability":"payable"},{"type":"function","name":"executeSwapAndDeposit","inputs":[{"name":"amountIn","type":"uint256","internalType":"uint256"},{"name":"swapCalldata","type":"bytes","internalType":"bytes"},{"name":"params","type":"tuple","internalType":"struct Types.DepositLiquidityParams","components":[{"name":"depositOwnerAddress","type":"address","internalType":"address"},{"name":"specifiedPayoutAddress","type":"address","internalType":"address"},{"name":"depositAmount","type":"uint256","internalType":"uint256"},{"name":"expectedSats","type":"uint64","internalType":"uint64"},{"name":"btcPayoutScriptPubKey","type":"bytes22","internalType":"bytes22"},{"name":"depositSalt","type":"bytes32","internalType":"bytes32"},{"name":"confirmationBlocks","type":"uint8","internalType":"uint8"},{"name":"safeBlockLeaf","type":"tuple","internalType":"struct Types.BlockLeaf","components":[{"name":"blockHash","type":"bytes32","internalType":"bytes32"},{"name":"height","type":"uint32","internalType":"uint32"},{"name":"cumulativeChainwork","type":"uint256","internalType":"uint256"}]},{"name":"safeBlockSiblings","type":"bytes32[]","internalType":"bytes32[]"},{"name":"safeBlockPeaks","type":"bytes32[]","internalType":"bytes32[]"}]},{"name":"owner","type":"address","internalType":"address"},{"name":"permit","type":"tuple","internalType":"struct ISignatureTransfer.PermitTransferFrom","components":[{"name":"permitted","type":"tuple","internalType":"struct ISignatureTransfer.TokenPermissions","components":[{"name":"token","type":"address","internalType":"address"},{"name":"amount","type":"uint256","internalType":"uint256"}]},{"name":"nonce","type":"uint256","internalType":"uint256"},{"name":"deadline","type":"uint256","internalType":"uint256"}]},{"name":"signature","type":"bytes","internalType":"bytes"}],"outputs":[{"name":"result","type":"tuple","internalType":"struct Types.BundlerResult","components":[{"name":"initialCbBTCBalance","type":"uint256","internalType":"uint256"},{"name":"finalCbBTCBalance","type":"uint256","internalType":"uint256"},{"name":"cbBTCReceived","type":"uint256","internalType":"uint256"}]}],"stateMutability":"payable"},{"type":"function","name":"executeSwapAndDepositTest","inputs":[{"name":"swapCalldata","type":"bytes","internalType":"bytes"},{"name":"owner","type":"address","internalType":"address"},{"name":"amountIn","type":"uint256","internalType":"uint256"},{"name":"tokenIn","type":"address","internalType":"address"},{"name":"params","type":"tuple","internalType":"struct Types.DepositLiquidityParams","components":[{"name":"depositOwnerAddress","type":"address","internalType":"address"},{"name":"specifiedPayoutAddress","type":"address","internalType":"address"},{"name":"depositAmount","type":"uint256","internalType":"uint256"},{"name":"expectedSats","type":"uint64","internalType":"uint64"},{"name":"btcPayoutScriptPubKey","type":"bytes22","internalType":"bytes22"},{"name":"depositSalt","type":"bytes32","internalType":"bytes32"},{"name":"confirmationBlocks","type":"uint8","internalType":"uint8"},{"name":"safeBlockLeaf","type":"tuple","internalType":"struct Types.BlockLeaf","components":[{"name":"blockHash","type":"bytes32","internalType":"bytes32"},{"name":"height","type":"uint32","internalType":"uint32"},{"name":"cumulativeChainwork","type":"uint256","internalType":"uint256"}]},{"name":"safeBlockSiblings","type":"bytes32[]","internalType":"bytes32[]"},{"name":"safeBlockPeaks","type":"bytes32[]","internalType":"bytes32[]"}]}],"outputs":[{"name":"result","type":"tuple","internalType":"struct Types.BundlerResult","components":[{"name":"initialCbBTCBalance","type":"uint256","internalType":"uint256"},{"name":"finalCbBTCBalance","type":"uint256","internalType":"uint256"},{"name":"cbBTCReceived","type":"uint256","internalType":"uint256"}]}],"stateMutability":"payable"},{"type":"function","name":"permit2","inputs":[],"outputs":[{"name":"","type":"address","internalType":"address"}],"stateMutability":"view"},{"type":"function","name":"permitTransferAndSwapDepositTest","inputs":[{"name":"owner","type":"address","internalType":"address"},{"name":"amountIn","type":"uint256","internalType":"uint256"},{"name":"permitted","type":"tuple","internalType":"struct ISignatureTransfer.PermitTransferFrom","components":[{"name":"permitted","type":"tuple","internalType":"struct ISignatureTransfer.TokenPermissions","components":[{"name":"token","type":"address","internalType":"address"},{"name":"amount","type":"uint256","internalType":"uint256"}]},{"name":"nonce","type":"uint256","internalType":"uint256"},{"name":"deadline","type":"uint256","internalType":"uint256"}]},{"name":"signature","type":"bytes","internalType":"bytes"},{"name":"swapCalldata","type":"bytes","internalType":"bytes"},{"name":"params","type":"tuple","internalType":"struct Types.DepositLiquidityParams","components":[{"name":"depositOwnerAddress","type":"address","internalType":"address"},{"name":"specifiedPayoutAddress","type":"address","internalType":"address"},{"name":"depositAmount","type":"uint256","internalType":"uint256"},{"name":"expectedSats","type":"uint64","internalType":"uint64"},{"name":"btcPayoutScriptPubKey","type":"bytes22","internalType":"bytes22"},{"name":"depositSalt","type":"bytes32","internalType":"bytes32"},{"name":"confirmationBlocks","type":"uint8","internalType":"uint8"},{"name":"safeBlockLeaf","type":"tuple","internalType":"struct Types.BlockLeaf","components":[{"name":"blockHash","type":"bytes32","internalType":"bytes32"},{"name":"height","type":"uint32","internalType":"uint32"},{"name":"cumulativeChainwork","type":"uint256","internalType":"uint256"}]},{"name":"safeBlockSiblings","type":"bytes32[]","internalType":"bytes32[]"},{"name":"safeBlockPeaks","type":"bytes32[]","internalType":"bytes32[]"}]}],"outputs":[],"stateMutability":"payable"},{"type":"function","name":"permitTransferAndSwapTest","inputs":[{"name":"owner","type":"address","internalType":"address"},{"name":"amountIn","type":"uint256","internalType":"uint256"},{"name":"permitted","type":"tuple","internalType":"struct ISignatureTransfer.PermitTransferFrom","components":[{"name":"permitted","type":"tuple","internalType":"struct ISignatureTransfer.TokenPermissions","components":[{"name":"token","type":"address","internalType":"address"},{"name":"amount","type":"uint256","internalType":"uint256"}]},{"name":"nonce","type":"uint256","internalType":"uint256"},{"name":"deadline","type":"uint256","internalType":"uint256"}]},{"name":"signature","type":"bytes","internalType":"bytes"},{"name":"swapCalldata","type":"bytes","internalType":"bytes"}],"outputs":[],"stateMutability":"payable"},{"type":"function","name":"riftExchange","inputs":[],"outputs":[{"name":"","type":"address","internalType":"address"}],"stateMutability":"view"},{"type":"function","name":"swapRouter","inputs":[],"outputs":[{"name":"","type":"address","internalType":"address"}],"stateMutability":"view"},{"type":"function","name":"universalRouter","inputs":[],"outputs":[{"name":"","type":"address","internalType":"address"}],"stateMutability":"view"},{"type":"event","name":"BundlerExecution","inputs":[{"name":"owner","type":"address","indexed":true,"internalType":"address"},{"name":"cbBTCReceived","type":"uint256","indexed":false,"internalType":"uint256"}],"anonymous":false},{"type":"event","name":"PermitTransferExecuted","inputs":[{"name":"owner","type":"address","indexed":true,"internalType":"address"},{"name":"numTransfers","type":"uint256","indexed":false,"internalType":"uint256"}],"anonymous":false},{"type":"event","name":"RiftDepositExecuted","inputs":[{"name":"riftExchange","type":"address","indexed":true,"internalType":"address"},{"name":"depositAmount","type":"uint256","indexed":false,"internalType":"uint256"}],"anonymous":false},{"type":"event","name":"SwapExecuted","inputs":[{"name":"initialCbBTCBalance","type":"uint256","indexed":false,"internalType":"uint256"},{"name":"finalCbBTCBalance","type":"uint256","indexed":false,"internalType":"uint256"},{"name":"cbBTCReceived","type":"uint256","indexed":false,"internalType":"uint256"}],"anonymous":false},{"type":"error","name":"ApprovalError","inputs":[{"name":"token","type":"address","internalType":"address"}]},{"type":"error","name":"ApprovalToRiftExchangeFailed","inputs":[]},{"type":"error","name":"SwapExecutionFailed","inputs":[]}],"bytecode":{"object":"0x61012080604052346102855760a0816123c98038038091610020828561029c565b83398101031261028557610033816102bf565b90610040602082016102bf565b9161004d604083016102bf565b91610066608061005f606084016102bf565b92016102bf565b60809290925260a084905260c083905260e0526101005260405163095ea7b360e01b81526001600160a01b0392831660048201525f1960248201529116906020816044815f865af1908115610291575f91610252575b501561024057604051606081016001600160401b0381118282101761022c575f91829160405260258152602081017f417070726f766564205269667445786368616e676520746f207370656e642063815264624254432160d81b604083015261016760646040518093602082019563104c13eb60e21b8752602060248401525180918160448501528484015e86838284010152601f801991011681010301601f19810183528261029c565b51906a636f6e736f6c652e6c6f675afa506040516120f590816102d4823960805181818161018501528181610a8501528181610af401528181610e3401528181610ea2015281816112970152611d18015260a0518181816102a501528181610ba70152818161149b01526117a4015260c05181818161013401528181610a24015281816111f10152818161171c0152611cc7015260e0518181816108c601528181610994015281816110b5015281816118390152611aa3015261010051816117600152f35b634e487b7160e01b5f52604160045260245ffd5b6345f56ca760e11b5f5260045260245ffd5b90506020813d602011610289575b8161026d6020938361029c565b8101031261028557518015158103610285575f6100bc565b5f80fd5b3d9150610260565b6040513d5f823e3d90fd5b601f909101601f19168101906001600160401b0382119082101761022c57604052565b51906001600160a01b03821682036102855756fe6080806040526004361015610012575f80fd5b5f905f3560e01c90816312261ee71461182757508063153df89e146117d35780631c919e101461178f57806335a9e4df1461174b5780635ad182d3146117075780636ca79b9314610f9d5780639a9bf48114610f2c578063b5ba5e7214610e63578063c31c9c0714610e1e578063e6cfccd314610680578063f1180511146105ea5763f2462740146100a2575f80fd5b60a03660031901126104cd576004356001600160401b0381116104db576100cd9036906004016118be565b6100d5611894565b906100de61187e565b93608435906001600160401b0382116104cd57816004019561018060031984360301126104db5761010d611bac565b5061011e610119611c0e565b611fa5565b6040516370a0823160e01b8152306004820152957f00000000000000000000000000000000000000000000000000000000000000006001600160a01b03169490602088602481895afa9788156105df5784986105ab575b5060405163095ea7b360e01b81527f00000000000000000000000000000000000000000000000000000000000000006001600160a01b038181166004840152604480356024850152919516919060209082908189865af19081156105a0578691610581575b501561056f575091818493849360405192839283378101848152039134905af1610202611c3a565b5015610560576040516370a0823160e01b815230600482015292602084602481845afa9384156104d0578294610528575b5061023e8685611c78565b945f5160206120a05f395f51905f526040518061026e89898c846040919493926060820195825260208201520152565b0390a16040518681526001600160a01b03909116905f5160206120805f395f51905f5290602090a260405163095ea7b360e01b81527f00000000000000000000000000000000000000000000000000000000000000006001600160a01b038116600483015260248201879052916020908290604490829087905af190811561051d5783916104ee575b50156104df576001600160a01b031691823b156104db57604051632433c70360e11b81526020600482015290829082908190610433906001600160a01b0361033e8d6118aa565b16602484015260018060a01b03610357602483016118aa565b16604484015261042060448201359c8d60648601526001600160401b0361038060648501611956565b16608486015269ffffffffffffffffffff1961039e6084850161196a565b1660a486015260a483013560c486015260ff6103bc60c48501611982565b1660e486015260e483013561010486015263ffffffff6103df6101048501611990565b16610124860152610124830135610144860152610164610418610406610144860184611f29565b610180848a01526101a4890191611f5d565b930190611f29565b8483036023190161018486015290611f5d565b038183875af180156104d0576104b8575b50507fa31e8bc1bdee2d6252cc2eaffcfd97de92d288a10a0c3699f5b066a6697a33b560206104b496604051908152a260405192610481846118eb565b83526020830152604082015260405191829182919091604080606083019480518452602081015160208501520151910152565b0390f35b6104c3828092611935565b6104cd5780610444565b80fd5b6040513d84823e3d90fd5b5080fd5b631a791b7760e11b8252600482fd5b610510915060203d602011610516575b6105088183611935565b810190611bf6565b5f6102f7565b503d6104fe565b6040513d85823e3d90fd5b9093506020813d602011610558575b8161054460209383611935565b810103126105545751925f610233565b5f80fd5b3d9150610537565b63382a82a760e11b8152600490fd5b6345f56ca760e11b8552600452602484fd5b61059a915060203d602011610516576105088183611935565b5f6101da565b6040513d88823e3d90fd5b9097506020813d6020116105d7575b816105c760209383611935565b810103126105545751965f610175565b3d91506105ba565b6040513d86823e3d90fd5b506101003660031901126104cd57610600611868565b60243590608036604319011261067c5760c4356001600160401b0381116106785761062f9036906004016118be565b92909160e435936001600160401b038511610674576106626106586106709636906004016118be565b9290958585611a89565b61066a611be0565b93611c99565b5080f35b8580fd5b8380fd5b8280fd5b506101203660031901126104cd57610696611868565b60803660431901126104db5760c4356001600160401b03811161067c576106c19036906004016118be565b909160e4356001600160401b038111610dfe576106e29036906004016118be565b909261010435946001600160401b038611610e1a5785360395610180600319880112610e16576040519661014088018881106001600160401b03821117610e0257899493929160609160405261073a836004016118aa565b8a52610748602484016118aa565b60208b0152604483013560408b015261076360648401611956565b828b01526107736084840161196a565b60808b015260a483013560a08b015261078e60c48401611982565b60c08b015260e3190112610678576040516107a8816118eb565b60e482013581526107bc6101048301611990565b6020820152610124820135604082015260e08901526101448101356001600160401b038111610dfe576107f590600436918401016119a1565b610100890152610164810135906001600160401b038211610dfe57600461081f92369201016119a1565b61012088015260405163161765e160e11b60208201526001600160a01b03861660248083019190915281525f908190610859604482611935565b6020815191016a636f6e736f6c652e6c6f675afa505f8060405163f82c50f160e01b6020820152602435602482015260248152610897604482611935565b6020815191016a636f6e736f6c652e6c6f675afa50604051916108b98361191a565b30835260243560208401527f00000000000000000000000000000000000000000000000000000000000000006001600160a01b03163b156106785760405163187945bd60e11b815292604435926001600160a01b038416840361067457600483869485936020610120968b9960018060a01b0316868801526064356024880152608435604488015260a435606488015260018060a01b038151166084880152015160a48601523360c486015261010060e48601528161010486015261012485013782810182018401869052601f01601f1916820101030181837f00000000000000000000000000000000000000000000000000000000000000006001600160a01b03165af180156104d057610de9575b5050604051600181526001600160a01b038316907fa3af27cbdd5938c0f2e793fee942c0b3ec8ea9384af488c16a446d87cd5d7bf690602090a2610a0e610119611c0e565b6040516370a0823160e01b8152306004820152927f00000000000000000000000000000000000000000000000000000000000000006001600160a01b03169190602085602481865afa948515610dde578795610daa575b506001600160a01b03610a76611be0565b60405163095ea7b360e01b81527f00000000000000000000000000000000000000000000000000000000000000006001600160a01b0316600482015260248035908201529116906020816044818c865af1908115610d9f578991610d80575b5015610d6e5750818792918392604051928392833781018381520390347f00000000000000000000000000000000000000000000000000000000000000005af1610b1d611c3a565b5015610d5f576020602491604051928380926370a0823160e01b82523060048301525afa908115610d54578591610d15575b505f5160206120805f395f51905f52915f5160206120a05f395f51905f5282610b7a86602095611c78565b60408051978852602088019290925290860181905294606090a16040519384526001600160a01b031692a27f00000000000000000000000000000000000000000000000000000000000000006001600160a01b031690813b1561067c5782604051632433c70360e11b81526020600482015260018060a01b03835116602482015260018060a01b036020840151166044820152604083015160648201526001600160401b03606084015116608482015269ffffffffffffffffffff1960808401511660a482015260a083015160c482015260ff60c08401511660e4820152604060e0840151805161010484015263ffffffff6020820151166101248401520151610144820152818180610cbb610ca36101008801516101806101648501526101a4840190611ef6565b61012088015183820360231901610184850152611ef6565b038183885af180156104d057610d00575b5050602060407fa31e8bc1bdee2d6252cc2eaffcfd97de92d288a10a0c3699f5b066a6697a33b5920151604051908152a280f35b81610d0a91611935565b61067c57825f610ccc565b90506020813d602011610d4c575b81610d3060209383611935565b8101031261055457515f5160206120805f395f51905f52610b4f565b3d9150610d23565b6040513d87823e3d90fd5b63382a82a760e11b8552600485fd5b6345f56ca760e11b8852600452602487fd5b610d99915060203d602011610516576105088183611935565b5f610ad5565b6040513d8b823e3d90fd5b9094506020813d602011610dd6575b81610dc660209383611935565b810103126105545751935f610a65565b3d9150610db9565b6040513d89823e3d90fd5b81610df391611935565b610dfe57845f6109c9565b8480fd5b634e487b7160e01b8a52604160045260248afd5b8780fd5b8680fd5b50346104cd57806003193601126104cd576040517f00000000000000000000000000000000000000000000000000000000000000006001600160a01b03168152602090f35b50346104cd5760603660031901126104cd57610e7d611894565b506044356001600160a01b038116908190036104db5760405163095ea7b360e01b81527f00000000000000000000000000000000000000000000000000000000000000006001600160a01b031660048083019190915235602482015260208160448186865af190811561051d578391610f0d575b5015610efb575080f35b6345f56ca760e11b8252600452602490fd5b610f26915060203d602011610516576105088183611935565b5f610ef1565b5060803660031901126104cd57600435906001600160401b0382116104cd576104b4610f79610f5e36600486016118be565b90610f67611894565b610f6f61187e565b9260443592611c99565b60408051825181526020808401519082015291810151908201529081906060820190565b5061012036600319011261055457600435906024356001600160401b03811161055457610fce9036906004016118be565b9190604435916001600160401b03831161055457610180600319843603011261055457610ff961187e565b92608036608319011261055457610104356001600160401b038111610554576110269036906004016118be565b9490611030611bac565b5060409561107287516110438982611935565b601a81527f457865637574696e67207377617020616e64206465706f7369740000000000006020820152611fa5565b6110b087516110818982611935565b601d81527f417474656d7074696e6720746f207065726d6974207472616e736665720000006020820152611fa5565b8651907f00000000000000000000000000000000000000000000000000000000000000006001600160a01b03166110e68361191a565b3083528a6020840152803b156105545761111d935f80948b519687958694859363187945bd60e11b85523390608460048701611a08565b03925af180156116fd576116e8575b5061116b855161113c8782611935565b601a81527f5065726d6974207472616e73666572207375636365737366756c0000000000006020820152611fa5565b60018060a01b031690817fa3af27cbdd5938c0f2e793fee942c0b3ec8ea9384af488c16a446d87cd5d7bf66020875160018152a26111dd85516111ae8782611935565b601781527f47657474696e672063624254432042616c616e636520310000000000000000006020820152611fa5565b84516370a0823160e01b81523060048201527f00000000000000000000000000000000000000000000000000000000000000006001600160a01b03169790966020886024818c5afa9788156116de5785986116aa575b506112738888516112448a82611935565b601981527f496e697469616c2063624254432042616c616e636520313a20000000000000006020820152611ff7565b8460206112e06001600160a01b03611289611bca565b8b5163095ea7b360e01b81527f00000000000000000000000000000000000000000000000000000000000000006001600160a01b038116600483015260248201989098529485939190921691839182906044820190565b03925af190811561165e57869161168b575b506113328189516113038b82611935565b601a81527f546f6b656e20417070726f76616c203120537563636573733a20000000000000602082015261203a565b156116685786516370a0823160e01b8152306004820152956020876024818d5afa96871561165e578697611624575b50918592918392611373610119611c0e565b818a5192839283378101848152039134905af161138e611c3a565b506113bf81875161139f8982611935565b600e81526d029bbb0b81039bab1b1b2b9b99d160951b602082015261203a565b156116155784516370a0823160e01b81523060048201526020816024818b5afa801561160b5784906115cc575b5f5160206120a05f395f51905f52915061142d81885161140c8a82611935565b600f81526e02334b730b6103130b630b731b29d1608d1b6020820152611ff7565b6114378682611c78565b9561146a8789516114488b82611935565b601081526f031b1212a21903932b1b2b4bb32b21d160851b6020820152611ff7565b8751908152602081019190915260408101869052606090a1838601928387116115b857855163095ea7b360e01b81527f00000000000000000000000000000000000000000000000000000000000000006001600160a01b038116600483015260248201879052986020908290604490829086905af19081156115ae57829161158f575b501561158057507fa31e8bc1bdee2d6252cc2eaffcfd97de92d288a10a0c3699f5b066a6697a33b560206104b49860448851940135845260018060a01b031692a25f5160206120805f395f51905f5260208551858152a2825193611550856118eb565b84526020840152818301525191829182919091604080606083019480518452602081015160208501520151910152565b631a791b7760e11b8152600490fd5b6115a8915060203d602011610516576105088183611935565b5f6114ed565b87513d84823e3d90fd5b634e487b7160e01b81526011600452602490fd5b506020813d602011611603575b816115e660209383611935565b81010312610554575f5160206120a05f395f51905f5290516113ec565b3d91506115d9565b86513d86823e3d90fd5b63382a82a760e11b8352600483fd5b91929096506020823d602011611656575b8161164260209383611935565b810103126105545790519590919085611361565b3d9150611635565b88513d88823e3d90fd5b602485611673611bca565b6345f56ca760e11b82526001600160a01b0316600452fd5b6116a4915060203d602011610516576105088183611935565b5f6112f2565b9097506020813d6020116116d6575b816116c660209383611935565b810103126105545751965f611233565b3d91506116b9565b87513d87823e3d90fd5b6116f59193505f90611935565b5f915f61112c565b86513d5f823e3d90fd5b34610554575f366003190112610554576040517f00000000000000000000000000000000000000000000000000000000000000006001600160a01b03168152602090f35b34610554575f366003190112610554576040517f00000000000000000000000000000000000000000000000000000000000000006001600160a01b03168152602090f35b34610554575f366003190112610554576040517f00000000000000000000000000000000000000000000000000000000000000006001600160a01b03168152602090f35b346105545760e0366003190112610554576117ec611868565b60803660431901126105545760c435906001600160401b0382116105545761181b6118259236906004016118be565b9160243590611a89565b005b34610554575f366003190112610554577f00000000000000000000000000000000000000000000000000000000000000006001600160a01b03168152602090f35b600435906001600160a01b038216820361055457565b606435906001600160a01b038216820361055457565b602435906001600160a01b038216820361055457565b35906001600160a01b038216820361055457565b9181601f84011215610554578235916001600160401b038311610554576020838186019501011161055457565b606081019081106001600160401b0382111761190657604052565b634e487b7160e01b5f52604160045260245ffd5b604081019081106001600160401b0382111761190657604052565b90601f801991011681019081106001600160401b0382111761190657604052565b35906001600160401b038216820361055457565b359069ffffffffffffffffffff198216820361055457565b359060ff8216820361055457565b359063ffffffff8216820361055457565b9080601f83011215610554578135916001600160401b038311611906578260051b90604051936119d46020840186611935565b845260208085019282010192831161055457602001905b8282106119f85750505090565b81358152602091820191016119eb565b93909260208694936060610120989560018060a01b03611a27826118aa565b16895280840135848a0152604080820135908a01520135606088015280516001600160a01b03908116608089015291015160a08701521660c085015261010060e085018190528401829052848401375f828201840152601f01601f1916010190565b929190604092611a9e84516110818682611935565b8351917f00000000000000000000000000000000000000000000000000000000000000006001600160a01b031690611ad58461191a565b3084526020840152803b1561055457611b0b935f809487519687958694859363187945bd60e11b85523390604460048701611a08565b03925af18015611ba257916020917fa3af27cbdd5938c0f2e793fee942c0b3ec8ea9384af488c16a446d87cd5d7bf693611b92575b50611b7e8151611b508382611935565b601a81527f5065726d6974207472616e73666572207375636365737366756c00000000000084820152611fa5565b51600181526001600160a01b0390931692a2565b5f611b9c91611935565b5f611b40565b82513d5f823e3d90fd5b60405190611bb9826118eb565b5f6040838281528260208201520152565b6084356001600160a01b03811681036105545790565b6044356001600160a01b03811681036105545790565b90816020910312610554575180151581036105545790565b60405190611c1d604083611935565b600e82526d0457865637574696e6720737761760941b6020830152565b3d15611c73573d906001600160401b0382116119065760405191611c68601f8201601f191660200184611935565b82523d5f602084013e565b606090565b91908203918211611c8557565b634e487b7160e01b5f52601160045260245ffd5b91929390611ca5611bac565b50611cb1610119611c0e565b6040516370a0823160e01b8152306004820152947f00000000000000000000000000000000000000000000000000000000000000006001600160a01b03169390602087602481885afa968715611e77575f97611ec2575b5060405163095ea7b360e01b81527f00000000000000000000000000000000000000000000000000000000000000006001600160a01b038181166004840152602483019390935294909116906020816044815f865af1908115611e77575f91611ea3575b5015611e91575091815f93849360405192839283378101848152039134905af1611d94611c3a565b5015611e82576020602491604051928380926370a0823160e01b82523060048301525afa908115611e77575f91611e45575b50611dd18382611c78565b915f5160206120a05f395f51905f5260405180611e01868689846040919493926060820195825260208201520152565b0390a16040518381526001600160a01b03909116905f5160206120805f395f51905f5290602090a260405192611e36846118eb565b83526020830152604082015290565b90506020813d602011611e6f575b81611e6060209383611935565b8101031261055457515f611dc6565b3d9150611e53565b6040513d5f823e3d90fd5b63382a82a760e11b5f5260045ffd5b6345f56ca760e11b5f5260045260245ffd5b611ebc915060203d602011610516576105088183611935565b5f611d6c565b9096506020813d602011611eee575b81611ede60209383611935565b810103126105545751955f611d08565b3d9150611ed1565b90602080835192838152019201905f5b818110611f135750505090565b8251845260209384019390920191600101611f06565b9035601e19823603018112156105545701602081359101916001600160401b038211610554578160051b3603831361055457565b81835290916001600160fb1b0383116105545760209260051b809284830137010190565b805180835260209291819084018484015e5f828201840152601f01601f1916010190565b5f611fd2611fe0829360405192839163104c13eb60e21b6020840152602060248401526044830190611f81565b03601f198101835282611935565b6020815191016a636f6e736f6c652e6c6f675afa50565b612026611fe05f93928493604051938492632d839cb360e21b6020850152604060248501526064840190611f81565b90604483015203601f198101835282611935565b612069611fe05f9392849360405193849263c3b5563560e01b6020850152604060248501526064840190611f81565b901515604483015203601f19810183528261193556fe5798042aa6f4acc5fdf6fc5c6c8a1f092d35373907c7bf9ac07a40c40a2995304d3257edb95914b701655f9bf4b58e4b422017a7b94dad03a20dae00f4b1cbb7a264697066735822122010d097ce0323eb73789c99bec93ae98d403089d7469ece613921e3435cd9263f64736f6c634300081c0033","linkReferences":{}},"methodIdentifiers":{"_permitTransfer(address,uint256,((address,uint256),uint256,uint256),bytes)":"153df89e","approveForSpender(uint256,address,address)":"b5ba5e72","cbBTC()":"5ad182d3","executeSwap(bytes,address,uint256,address)":"9a9bf481","executeSwapAndDeposit(uint256,bytes,(address,address,uint256,uint64,bytes22,bytes32,uint8,(bytes32,uint32,uint256),bytes32[],bytes32[]),address,((address,uint256),uint256,uint256),bytes)":"6ca79b93","executeSwapAndDepositTest(bytes,address,uint256,address,(address,address,uint256,uint64,bytes22,bytes32,uint8,(bytes32,uint32,uint256),bytes32[],bytes32[]))":"f2462740","permit2()":"12261ee7","permitTransferAndSwapDepositTest(address,uint256,((address,uint256),uint256,uint256),bytes,bytes,(address,address,uint256,uint64,bytes22,bytes32,uint8,(bytes32,uint32,uint256),bytes32[],bytes32[]))":"e6cfccd3","permitTransferAndSwapTest(address,uint256,((address,uint256),uint256,uint256),bytes,bytes)":"f1180511","riftExchange()":"1c919e10","swapRouter()":"c31c9c07","universalRouter()":"35a9e4df"},"storageLayout":{"storage":[],"types":{}},"id":9}